:0400000002001132B7
:03000B0002015897
:20006A00E4F521F522F523F524F525F526F527F528F52EF52FF530F531F532F533F534F5C7
:20008A0035F536F537753803F539753A03F53B753CC0F53D753E01F53FF540F541F5427568
:0500AA00434E02000EB0
:03000E00020740A6
:2000AF00AE82AF83EE4F601B7C7D7D00EC24FFFAED34FFFB8A048B05EA4B70F01EBEFF01EE
:2000CF001F80E122E52725E0FEE52833FFEE2496F582EF3408F583E493F580C2A09000027F
:2000EF001200AFD2A0E52525E0FEE52633FFEE2496F582EF3408F583E493F580C2A19000D3
:20010F00021200AFD2A1E52325E0FEE52433FFEE2496F582EF3408F583E493F580C2A290B2
:20012F0000021200AFD2A2E5212521FEE52233FFEE2496F582EF3408F583E493F580C2A3E3
:20014F009000021200AFD2A322C020C0E0C0F0C082C083C007C006C005C004C003C002C096
:20016F0001C000C0D075D000758CFC758A6674012529F529E4352AF52AE4352BF52BE435B8
:20018F002CF52C752D01E4B52E05B52F02801A7401B52E0614B52F0280677402B52E07E491
:2001AF00B52F030202A9020378E529C39534FCE52A9535FDE52B9536FEE52C9537FFC374C7
:2001CF00F49C74019DE49EE49F4003020378852934852A35852B36852C377508F475090125
:2001EF00E4F50AF50B852982852A83852BF0E52C120811AC82AD83AEF0FFECF4F59002036A
:20020F0078E529C39530FCE52A9531FDE52B9532FEE52C9533FFC374F49C74019DE49EE407
:20022F009F4003020378852930852A31852B32852C33E53E6032E538FFF4F59074C0B53861
:20024F0006E4B5390280028011753E00E539C313C53813C538F539020378E5382538F5389C
:20026F00E53933F539020378E538FFF4F5907403B53806E4B5390280028011753E01E538BC
:20028F002538F538E53933F539020378E539C313C53813C538F539020378E529C39530FC8B
:2002AF00E52A9531FDE52B9532FEE52C9533FFC374F49C74019DE49EE49F4003020378858D
:2002CF002930852A31852B32852C33E53E604EE53C453AFEE53D453BFFEEF4F59074C0B5B0
:2002EF003A06E4B53B028002801B753E00E53BC313C53A13C53AF53BE53C253CF53CE53DFD
:20030F0033F53D8064E53A253AF53AE53B33F53BE53DC313C53C13C53CF53D804CE53C45E4
:20032F003AFEE53D453BFFEEF4F5907403B53A06E4B53B028002801B753E01E53A253AF5E8
:20034F003AE53B33F53BE53DC313C53C13C53CF53D8016E53BC313C53A13C53AF53BE53CA4
:20036F00253CF53CE53D33F53DD0D0D000D001D002D003D004D005D006D007D083D082D0A4
:20038F00F0D0E0D02032752D00AC29AD2AAE2BAF2CE52D70F18C828D838EF0EF22AE82AF8B
:2003AF0083E59830E1FB5398FD8E998E828F8322E52230E713752109752200AE23AF241EA6
:2003CF00BEFF011F8E238F24E52430E713752309752400AE25AF261EBEFF011F8E258F2655
:2003EF00E52630E713752509752600AE27AF281EBEFF011F8E278F28E52830E7187521098D
:20040F0075220075230975240075250975260075270975280022C37409952174808522F0D9
:20042F0063F08095F05012E4F521F522AE23AF240EBE00010F8E238F24C374099523748012
:20044F008524F063F08095F05012E4F523F524AE25AF260EBE00010F8E258F26C374099564
:20046F002574808526F063F08095F05012E4F525F526AE27AF280EBE00010F8E278F28C32F
:20048F007409952774808528F063F08095F05011E4F521F522F523F524F525F526F527F542
:2004AF002822D2A7D2A6C2A7C2A622C2A7D2A6D2A7C2A622C2A6D2A7D2A622AF827E00747D
:2004CF00805F23540124FF92A7D2A6C2A68F05ED2DFF0EBE080040E7D2A7D2A6C2A6227FD8
:2004EF00007E00D2A68F05ED2DFDA2A7E4334DFFC2A60EBE080040EBC2A7D2A6C2A6D2A777
:20050F008F82221204B17582411204CA1204EEE582F4FFC0071204BAD007EF30E4067D0167
:20052F007E0080047D007E00EF30E5067C017E0080047C007E00EF30E6067B017E008004A3
:20054F007B007E00EF30E7067E017F0080047E007F007F00ED60027F01EC60098F047D0055
:20056F004304028C07EB60098F047D004304048C07EE60098F057E004305088D07EFF4FF1F
:20058F00C0071204B17582401204CAD0078F821204CA0204BA85824422AF827E00C2A68E0D
:2005AF00F005F07C80E4FD3392D28008A2D2ED13FDEC13FCD5F0F58F027B00EA5204EB529C
:2005CF0005EC4D24FF92A7D2A60EBE080040CE22AF828F06EEC454F0FE5306F05307F0C0E9
:2005EF0007C0061204B18544821205A81204C3D006D0077D00740C4FFB8D048B82C007C05C
:20060F0006C0051205A81204C39000011200AFD005D006D0074307088F82C0061205A8129A
:20062F0004C390000A1200AFD0067F00740C4EFC8F058C82C007C0061205A81204C3900013
:20064F00011200AFD006D0074306088E821205A81204C390000A1200AF0204BAAF828F0642
:20066F00EEC454F0FE5306F05307F0C007C0061204B18544821205A81204C3D006D0077D83
:20068F0000740D4FFB8D048B82C007C006C0051205A81204C39000011200AFD005D006D02B
:2006AF00074307098F82C0061205A81204C390000A1200AFD0067F00740D4EFC8F058C8245
:2006CF00C007C0061205A81204C39000011200AFD006D0074306098E821205A81204C3905D
:2006EF00000A1200AF0204BAAD82AE83AFF08D828E838FF0120876FC60188C820DBD0001E5
:20070F000EC007C006C00512066BD005D006D00780DC227582021205DF7582281205DF756E
:20072F00820C1205DF7582061205DF7582010205DF758CFC758A66AEA84306828EA875899E
:20074F0021759840758DFDAE884306408E88AE884306108E88AE984306028E988543821290
:20076F0005A41207227582801205DF9008AA75F0801206F77582C01205DF9008BB75F080FE
:20078F001206F71200D320B52B9000051200AF20B52220B5051200D380F8052EE4B52E02D6
:2007AF00052F7590FFC37402952EE4952F5005E4F52EF52F20B3219000051200AF20B31899
:2007CF0020B3051200D380F8AE21AF220EBE00010F8E218F2212042520B221900005120024
:2007EF00AF20B21820B2051200D380F8AE21AF221EBEFF011F8E218F221203BF1205120223
:02080F0007924E
:20089600C000F900A400B000990092008200F8008000900048656C6C6F20576F726C642143
:1608B6002020202000202020426F62206973204772656174210009
:20081100FB7A20E4FCFDFEFFE5822582F582E58333F583E5F033F5F0EB33FB4017DAE98020
:2008310042E5822582F582E58333F583E5F033F5F0EB33FBEC33FCED33FDEE33FEEF33FF4F
:20085100EC9508ED9509EE950AEF950B4013EC9508FCED9509FDEE950AFEEF950BFF438219
:0508710001DABEEB22DC
:06004000E478FFF6D8FD94
:20001E007900E94400601B7A009008CC780175A000E493F2A308B8000205A0D9F4DAF275B4
:02003E00A0FF21
:200046007800E84400600A790175A000E4F309D8FC7800E84400600C7900900001E4F0A3B8
:04006600D8FCD9FAEF
:0D001100758144120892E582600302000E22
:1C08760020F71430F6148883A88220F507E6A88375830022E280F7E49322E02291
:040892007582002249
:00000001FF
