:03000000020006F5
:03005F0002000399
:0300030002018671
:20006200AE82AF83EE4F601B7C7D7D00EC24FFFAED34FFFB8A048B05EA4B70F01EBEFF013B
:200082001F80E122D2A1D2A0C2A1C2A022C2A1D2A0D2A1C2A022AF827E0074805F235401AA
:2000A20024FF92A1D2A0900001C007C006120062D006D007C2A08F05ED2DFF0EBE08004014
:2000C200D9D2A1D2A0900001120062C2A0227F007E00D2A08F05ED2DFDA2A1E4334DFFC255
:2000E200A00EBE080040EBC2A1D2A0C2A0D2A18F82221200867582411200981200D0E582BF
:20010200F4FFC00712008FD007EF30E4067D017E0080047D007E00EF30E5067C017E0080A2
:20012200047C007E00EF30E6067B017E0080047B007E00EF30E7067E017F0080047E007FB2
:20014200007F00ED60027F01EC60098F047D004304028C07EB60098F047D004304048C07CC
:20016200EE60098F057E004305088D07EFF4FFC007120086758240120098D0078F82120014
:090182009802008F1200F480FBCA
:06003500E478FFF6D8FD9F
:200013007900E94400601B7A0090018F780175A000E493F2A308B8000205A0D9F4DAF27503
:02003300A0FF2C
:20003B007800E84400600A790175A000E4F309D8FC7800E84400600C7900900001E4F0A3C3
:04005B00D8FCD9FAFA
:0D00060075810712018BE582600302000383
:04018B007582002257
:00000001FF
