:03000000020006F5
:03005F0002000399
:030003000200A454
:20006200C293D29022AF827E0074805F23540124FF9291D293C2938F05ED2DFF0EBE0800AA
:2000820040E7227F007E00D2938F05ED2DFDA292E4334DFFC2930EBE080040EB8F822202E8
:0700A20000621200A180FEC4
:06003500E478FFF6D8FD9F
:200013007900E94400601B7A009000AD780175A000E493F2A308B8000205A0D9F4DAF275E6
:02003300A0FF2C
:20003B007800E84400600A790175A000E4F309D8FC7800E84400600C7900900001E4F0A3C3
:04005B00D8FCD9FAFA
:0D0006007581071200A9E582600302000366
:0400A900758200223A
:00000001FF
